{
  "contractName": "ERC20_ICO",
  "abi": [
    {
      "inputs": [],
      "stateMutability": "nonpayable",
      "type": "constructor"
    },
    {
      "anonymous": false,
      "inputs": [
        {
          "indexed": true,
          "internalType": "address",
          "name": "owner",
          "type": "address"
        },
        {
          "indexed": true,
          "internalType": "address",
          "name": "spender",
          "type": "address"
        },
        {
          "indexed": false,
          "internalType": "uint256",
          "name": "value",
          "type": "uint256"
        }
      ],
      "name": "Approval",
      "type": "event"
    },
    {
      "anonymous": false,
      "inputs": [
        {
          "indexed": true,
          "internalType": "address",
          "name": "from",
          "type": "address"
        },
        {
          "indexed": true,
          "internalType": "address",
          "name": "to",
          "type": "address"
        },
        {
          "indexed": false,
          "internalType": "uint256",
          "name": "value",
          "type": "uint256"
        }
      ],
      "name": "Transfer",
      "type": "event"
    },
    {
      "inputs": [
        {
          "internalType": "address",
          "name": "owner",
          "type": "address"
        },
        {
          "internalType": "address",
          "name": "spender",
          "type": "address"
        }
      ],
      "name": "allowance",
      "outputs": [
        {
          "internalType": "uint256",
          "name": "",
          "type": "uint256"
        }
      ],
      "stateMutability": "view",
      "type": "function",
      "constant": true
    },
    {
      "inputs": [
        {
          "internalType": "address",
          "name": "spender",
          "type": "address"
        },
        {
          "internalType": "uint256",
          "name": "amount",
          "type": "uint256"
        }
      ],
      "name": "approve",
      "outputs": [
        {
          "internalType": "bool",
          "name": "",
          "type": "bool"
        }
      ],
      "stateMutability": "nonpayable",
      "type": "function"
    },
    {
      "inputs": [
        {
          "internalType": "address",
          "name": "account",
          "type": "address"
        }
      ],
      "name": "balanceOf",
      "outputs": [
        {
          "internalType": "uint256",
          "name": "",
          "type": "uint256"
        }
      ],
      "stateMutability": "view",
      "type": "function",
      "constant": true
    },
    {
      "inputs": [],
      "name": "decimals",
      "outputs": [
        {
          "internalType": "uint8",
          "name": "",
          "type": "uint8"
        }
      ],
      "stateMutability": "view",
      "type": "function",
      "constant": true
    },
    {
      "inputs": [
        {
          "internalType": "address",
          "name": "spender",
          "type": "address"
        },
        {
          "internalType": "uint256",
          "name": "subtractedValue",
          "type": "uint256"
        }
      ],
      "name": "decreaseAllowance",
      "outputs": [
        {
          "internalType": "bool",
          "name": "",
          "type": "bool"
        }
      ],
      "stateMutability": "nonpayable",
      "type": "function"
    },
    {
      "inputs": [
        {
          "internalType": "address",
          "name": "spender",
          "type": "address"
        },
        {
          "internalType": "uint256",
          "name": "addedValue",
          "type": "uint256"
        }
      ],
      "name": "increaseAllowance",
      "outputs": [
        {
          "internalType": "bool",
          "name": "",
          "type": "bool"
        }
      ],
      "stateMutability": "nonpayable",
      "type": "function"
    },
    {
      "inputs": [],
      "name": "name",
      "outputs": [
        {
          "internalType": "string",
          "name": "",
          "type": "string"
        }
      ],
      "stateMutability": "view",
      "type": "function",
      "constant": true
    },
    {
      "inputs": [],
      "name": "symbol",
      "outputs": [
        {
          "internalType": "string",
          "name": "",
          "type": "string"
        }
      ],
      "stateMutability": "view",
      "type": "function",
      "constant": true
    },
    {
      "inputs": [],
      "name": "totalSupply",
      "outputs": [
        {
          "internalType": "uint256",
          "name": "",
          "type": "uint256"
        }
      ],
      "stateMutability": "view",
      "type": "function",
      "constant": true
    },
    {
      "inputs": [
        {
          "internalType": "address",
          "name": "from",
          "type": "address"
        },
        {
          "internalType": "address",
          "name": "to",
          "type": "address"
        },
        {
          "internalType": "uint256",
          "name": "amount",
          "type": "uint256"
        }
      ],
      "name": "transferFrom",
      "outputs": [
        {
          "internalType": "bool",
          "name": "",
          "type": "bool"
        }
      ],
      "stateMutability": "nonpayable",
      "type": "function"
    },
    {
      "inputs": [
        {
          "internalType": "address",
          "name": "to",
          "type": "address"
        },
        {
          "internalType": "uint256",
          "name": "amount",
          "type": "uint256"
        }
      ],
      "name": "transfer",
      "outputs": [
        {
          "internalType": "bool",
          "name": "",
          "type": "bool"
        }
      ],
      "stateMutability": "nonpayable",
      "type": "function"
    },
    {
      "inputs": [
        {
          "internalType": "address",
          "name": "addrToList",
          "type": "address"
        }
      ],
      "name": "addToWhitelist",
      "outputs": [],
      "stateMutability": "nonpayable",
      "type": "function"
    },
    {
      "inputs": [],
      "name": "getRate",
      "outputs": [
        {
          "internalType": "uint256",
          "name": "",
          "type": "uint256"
        }
      ],
      "stateMutability": "view",
      "type": "function",
      "constant": true
    },
    {
      "inputs": [],
      "name": "buyTokens",
      "outputs": [
        {
          "internalType": "bool",
          "name": "",
          "type": "bool"
        }
      ],
      "stateMutability": "payable",
      "type": "function",
      "payable": true
    }
  ],
  "bytecode": "0x60806040523480156200001157600080fd5b506040518060400160405280600b81526020017f4d7945524332305f49434f0000000000000000000000000000000000000000008152506040518060400160405280600381526020017f4d4549000000000000000000000000000000000000000000000000000000000081525081600390805190602001906200009692919062000100565b508060049080519060200190620000af92919062000100565b50505033600560006101000a81548173ffffffffffffffffffffffffffffffffffffffff021916908373ffffffffffffffffffffffffffffffffffffffff1602179055504260078190555062000214565b8280546200010e90620001df565b90600052602060002090601f0160209004810192826200013257600085556200017e565b82601f106200014d57805160ff19168380011785556200017e565b828001600101855582156200017e579182015b828111156200017d57825182559160200191906001019062000160565b5b5090506200018d919062000191565b5090565b5b80821115620001ac57600081600090555060010162000192565b5090565b7f4e487b7100000000000000000000000000000000000000000000000000000000600052602260045260246000fd5b60006002820490506001821680620001f857607f821691505b6020821081036200020e576200020d620001b0565b5b50919050565b611c5880620002246000396000f3fe6080604052600436106100dd5760003560e01c806370a082311161007f578063a9059cbb11610059578063a9059cbb146102ea578063d0febe4c14610327578063dd62ed3e14610345578063e43252d714610382576100dd565b806370a082311461024557806395d89b4114610282578063a457c2d7146102ad576100dd565b806323b872dd116100bb57806323b872dd14610175578063313ce567146101b257806339509351146101dd578063679aefce1461021a576100dd565b806306fdde03146100e2578063095ea7b31461010d57806318160ddd1461014a575b600080fd5b3480156100ee57600080fd5b506100f76103ab565b604051610104919061116c565b60405180910390f35b34801561011957600080fd5b50610134600480360381019061012f9190611227565b61043d565b6040516101419190611282565b60405180910390f35b34801561015657600080fd5b5061015f610460565b60405161016c91906112ac565b60405180910390f35b34801561018157600080fd5b5061019c600480360381019061019791906112c7565b61046a565b6040516101a99190611282565b60405180910390f35b3480156101be57600080fd5b506101c7610499565b6040516101d49190611336565b60405180910390f35b3480156101e957600080fd5b5061020460048036038101906101ff9190611227565b6104a2565b6040516102119190611282565b60405180910390f35b34801561022657600080fd5b5061022f6104d9565b60405161023c91906112ac565b60405180910390f35b34801561025157600080fd5b5061026c60048036038101906102679190611351565b610534565b60405161027991906112ac565b60405180910390f35b34801561028e57600080fd5b5061029761057c565b6040516102a4919061116c565b60405180910390f35b3480156102b957600080fd5b506102d460048036038101906102cf9190611227565b61060e565b6040516102e19190611282565b60405180910390f35b3480156102f657600080fd5b50610311600480360381019061030c9190611227565b610685565b60405161031e9190611282565b60405180910390f35b61032f6107a1565b60405161033c9190611282565b60405180910390f35b34801561035157600080fd5b5061036c6004803603810190610367919061137e565b61087c565b60405161037991906112ac565b60405180910390f35b34801561038e57600080fd5b506103a960048036038101906103a49190611351565b610903565b005b6060600380546103ba906113ed565b80601f01602080910402602001604051908101604052809291908181526020018280546103e6906113ed565b80156104335780601f1061040857610100808354040283529160200191610433565b820191906000526020600020905b81548152906001019060200180831161041657829003601f168201915b5050505050905090565b6000806104486109c3565b90506104558185856109cb565b600191505092915050565b6000600254905090565b6000806104756109c3565b9050610482858285610b94565b61048d858585610c20565b60019150509392505050565b60006012905090565b6000806104ad6109c3565b90506104ce8185856104bf858961087c565b6104c9919061144d565b6109cb565b600191505092915050565b600080600090506000600754426104f091906114a3565b90506203f48081101561050657602a915061052c565b62278d0081101561051a576015915061052b565b623a020081101561052a57600891505b5b5b819250505090565b60008060008373ffffffffffffffffffffffffffffffffffffffff1673ffffffffffffffffffffffffffffffffffffffff168152602001908152602001600020549050919050565b60606004805461058b906113ed565b80601f01602080910402602001604051908101604052809291908181526020018280546105b7906113ed565b80156106045780601f106105d957610100808354040283529160200191610604565b820191906000526020600020905b8154815290600101906020018083116105e757829003601f168201915b5050505050905090565b6000806106196109c3565b90506000610627828661087c565b90508381101561066c576040517f08c379a000000000000000000000000000000000000000000000000000000000815260040161066390611549565b60405180910390fd5b61067982868684036109cb565b60019250505092915050565b6000789f4f2726179a224501d762422c946590d9100000000000000082106106e2576040517f08c379a00000000000000000000000000000000000000000000000000000000081526004016106d9906115b5565b60405180910390fd5b60006106ec6109c3565b905060006106f86104d9565b905061070381610e9f565b610742576040517f08c379a000000000000000000000000000000000000000000000000000000000815260040161073990611621565b60405180910390fd5b61074b82610ebc565b61078a576040517f08c379a0000000000000000000000000000000000000000000000000000000008152600401610781906116b3565b60405180910390fd5b610795828686610c20565b60019250505092915050565b6000806107ac6104d9565b90506107b781610e9f565b6107f6576040517f08c379a00000000000000000000000000000000000000000000000000000000081526004016107ed90611621565b60405180910390fd5b600081670de0b6b3a76400003461080d9190611702565b6108179190611733565b90506000811161085c576040517f08c379a0000000000000000000000000000000000000000000000000000000008152600401610853906117d9565b60405180910390fd5b60006108666109c3565b90506108728183610f6a565b6001935050505090565b6000600160008473ffffffffffffffffffffffffffffffffffffffff1673ffffffffffffffffffffffffffffffffffffffff16815260200190815260200160002060008373ffffffffffffffffffffffffffffffffffffffff1673ffffffffffffffffffffffffffffffffffffffff16815260200190815260200160002054905092915050565b600560009054906101000a900473ffffffffffffffffffffffffffffffffffffffff1673ffffffffffffffffffffffffffffffffffffffff163373ffffffffffffffffffffffffffffffffffffffff161461095d57600080fd5b6006819080600181540180825580915050600190039060005260206000200160009091909190916101000a81548173ffffffffffffffffffffffffffffffffffffffff021916908373ffffffffffffffffffffffffffffffffffffffff16021790555050565b600033905090565b600073ffffffffffffffffffffffffffffffffffffffff168373ffffffffffffffffffffffffffffffffffffffff1603610a3a576040517f08c379a0000000000000000000000000000000000000000000000000000000008152600401610a319061186b565b60405180910390fd5b600073ffffffffffffffffffffffffffffffffffffffff168273ffffffffffffffffffffffffffffffffffffffff1603610aa9576040517f08c379a0000000000000000000000000000000000000000000000000000000008152600401610aa0906118fd565b60405180910390fd5b80600160008573ffffffffffffffffffffffffffffffffffffffff1673ffffffffffffffffffffffffffffffffffffffff16815260200190815260200160002060008473ffffffffffffffffffffffffffffffffffffffff1673ffffffffffffffffffffffffffffffffffffffff168152602001908152602001600020819055508173ffffffffffffffffffffffffffffffffffffffff168373ffffffffffffffffffffffffffffffffffffffff167f8c5be1e5ebec7d5bd14f71427d1e84f3dd0314c0f7b2291e5b200ac8c7c3b92583604051610b8791906112ac565b60405180910390a3505050565b6000610ba0848461087c565b90507fffffffffffffffffffffffffffffffffffffffffffffffffffffffffffffffff8114610c1a5781811015610c0c576040517f08c379a0000000000000000000000000000000000000000000000000000000008152600401610c0390611969565b60405180910390fd5b610c1984848484036109cb565b5b50505050565b600073ffffffffffffffffffffffffffffffffffffffff168373ffffffffffffffffffffffffffffffffffffffff1603610c8f576040517f08c379a0000000000000000000000000000000000000000000000000000000008152600401610c86906119fb565b60405180910390fd5b600073ffffffffffffffffffffffffffffffffffffffff168273ffffffffffffffffffffffffffffffffffffffff1603610cfe576040517f08c379a0000000000000000000000000000000000000000000000000000000008152600401610cf590611a8d565b60405180910390fd5b610d098383836110c9565b60008060008573ffffffffffffffffffffffffffffffffffffffff1673ffffffffffffffffffffffffffffffffffffffff16815260200190815260200160002054905081811015610d8f576040517f08c379a0000000000000000000000000000000000000000000000000000000008152600401610d8690611b1f565b60405180910390fd5b8181036000808673ffffffffffffffffffffffffffffffffffffffff1673ffffffffffffffffffffffffffffffffffffffff16815260200190815260200160002081905550816000808573ffffffffffffffffffffffffffffffffffffffff1673ffffffffffffffffffffffffffffffffffffffff1681526020019081526020016000206000828254610e22919061144d565b925050819055508273ffffffffffffffffffffffffffffffffffffffff168473ffffffffffffffffffffffffffffffffffffffff167fddf252ad1be2c89b69c2b068fc378daa952ba7f163c4a11628f55a4df523b3ef84604051610e8691906112ac565b60405180910390a3610e998484846110ce565b50505050565b600080821115610eb25760019050610eb7565b600090505b919050565b6000806000905060005b600680549050811015610f60578373ffffffffffffffffffffffffffffffffffffffff1660068281548110610efe57610efd611b3f565b5b9060005260206000200160009054906101000a900473ffffffffffffffffffffffffffffffffffffffff1673ffffffffffffffffffffffffffffffffffffffff1603610f4d5760019150610f60565b8080610f5890611b6e565b915050610ec6565b5080915050919050565b600073ffffffffffffffffffffffffffffffffffffffff168273ffffffffffffffffffffffffffffffffffffffff1603610fd9576040517f08c379a0000000000000000000000000000000000000000000000000000000008152600401610fd090611c02565b60405180910390fd5b610fe5600083836110c9565b8060026000828254610ff7919061144d565b92505081905550806000808473ffffffffffffffffffffffffffffffffffffffff1673ffffffffffffffffffffffffffffffffffffffff168152602001908152602001600020600082825461104c919061144d565b925050819055508173ffffffffffffffffffffffffffffffffffffffff16600073ffffffffffffffffffffffffffffffffffffffff167fddf252ad1be2c89b69c2b068fc378daa952ba7f163c4a11628f55a4df523b3ef836040516110b191906112ac565b60405180910390a36110c5600083836110ce565b5050565b505050565b505050565b600081519050919050565b600082825260208201905092915050565b60005b8381101561110d5780820151818401526020810190506110f2565b8381111561111c576000848401525b50505050565b6000601f19601f8301169050919050565b600061113e826110d3565b61114881856110de565b93506111588185602086016110ef565b61116181611122565b840191505092915050565b600060208201905081810360008301526111868184611133565b905092915050565b600080fd5b600073ffffffffffffffffffffffffffffffffffffffff82169050919050565b60006111be82611193565b9050919050565b6111ce816111b3565b81146111d957600080fd5b50565b6000813590506111eb816111c5565b92915050565b6000819050919050565b611204816111f1565b811461120f57600080fd5b50565b600081359050611221816111fb565b92915050565b6000806040838503121561123e5761123d61118e565b5b600061124c858286016111dc565b925050602061125d85828601611212565b9150509250929050565b60008115159050919050565b61127c81611267565b82525050565b60006020820190506112976000830184611273565b92915050565b6112a6816111f1565b82525050565b60006020820190506112c1600083018461129d565b92915050565b6000806000606084860312156112e0576112df61118e565b5b60006112ee868287016111dc565b93505060206112ff868287016111dc565b925050604061131086828701611212565b9150509250925092565b600060ff82169050919050565b6113308161131a565b82525050565b600060208201905061134b6000830184611327565b92915050565b6000602082840312156113675761136661118e565b5b6000611375848285016111dc565b91505092915050565b600080604083850312156113955761139461118e565b5b60006113a3858286016111dc565b92505060206113b4858286016111dc565b9150509250929050565b7f4e487b7100000000000000000000000000000000000000000000000000000000600052602260045260246000fd5b6000600282049050600182168061140557607f821691505b602082108103611418576114176113be565b5b50919050565b7f4e487b7100000000000000000000000000000000000000000000000000000000600052601160045260246000fd5b6000611458826111f1565b9150611463836111f1565b9250827fffffffffffffffffffffffffffffffffffffffffffffffffffffffffffffffff038211156114985761149761141e565b5b828201905092915050565b60006114ae826111f1565b91506114b9836111f1565b9250828210156114cc576114cb61141e565b5b828203905092915050565b7f45524332303a2064656372656173656420616c6c6f77616e63652062656c6f7760008201527f207a65726f000000000000000000000000000000000000000000000000000000602082015250565b60006115336025836110de565b915061153e826114d7565b604082019050919050565b6000602082019050818103600083015261156281611526565b9050919050565b7f746f6f206d616e7920616d6f756e740000000000000000000000000000000000600082015250565b600061159f600f836110de565b91506115aa82611569565b602082019050919050565b600060208201905081810360008301526115ce81611592565b9050919050565b7f45524332303a2073616c652074696d65206973206f7665720000000000000000600082015250565b600061160b6018836110de565b9150611616826115d5565b602082019050919050565b6000602082019050818103600083015261163a816115fe565b9050919050565b7f45524332303a207472616e7366657220617661696c61626c65206f6e6c79207460008201527f6f206164647265737365732066726f6d20746865207768697465206c69737400602082015250565b600061169d603f836110de565b91506116a882611641565b604082019050919050565b600060208201905081810360008301526116cc81611690565b9050919050565b7f4e487b7100000000000000000000000000000000000000000000000000000000600052601260045260246000fd5b600061170d826111f1565b9150611718836111f1565b925082611728576117276116d3565b5b828204905092915050565b600061173e826111f1565b9150611749836111f1565b9250817fffffffffffffffffffffffffffffffffffffffffffffffffffffffffffffffff04831182151516156117825761178161141e565b5b828202905092915050565b7f45524332303a206e6f7420656e6f7567682066756e6473000000000000000000600082015250565b60006117c36017836110de565b91506117ce8261178d565b602082019050919050565b600060208201905081810360008301526117f2816117b6565b9050919050565b7f45524332303a20617070726f76652066726f6d20746865207a65726f2061646460008201527f7265737300000000000000000000000000000000000000000000000000000000602082015250565b60006118556024836110de565b9150611860826117f9565b604082019050919050565b6000602082019050818103600083015261188481611848565b9050919050565b7f45524332303a20617070726f766520746f20746865207a65726f20616464726560008201527f7373000000000000000000000000000000000000000000000000000000000000602082015250565b60006118e76022836110de565b91506118f28261188b565b604082019050919050565b60006020820190508181036000830152611916816118da565b9050919050565b7f45524332303a20696e73756666696369656e7420616c6c6f77616e6365000000600082015250565b6000611953601d836110de565b915061195e8261191d565b602082019050919050565b6000602082019050818103600083015261198281611946565b9050919050565b7f45524332303a207472616e736665722066726f6d20746865207a65726f20616460008201527f6472657373000000000000000000000000000000000000000000000000000000602082015250565b60006119e56025836110de565b91506119f082611989565b604082019050919050565b60006020820190508181036000830152611a14816119d8565b9050919050565b7f45524332303a207472616e7366657220746f20746865207a65726f206164647260008201527f6573730000000000000000000000000000000000000000000000000000000000602082015250565b6000611a776023836110de565b9150611a8282611a1b565b604082019050919050565b60006020820190508181036000830152611aa681611a6a565b9050919050565b7f45524332303a207472616e7366657220616d6f756e742065786365656473206260008201527f616c616e63650000000000000000000000000000000000000000000000000000602082015250565b6000611b096026836110de565b9150611b1482611aad565b604082019050919050565b60006020820190508181036000830152611b3881611afc565b9050919050565b7f4e487b7100000000000000000000000000000000000000000000000000000000600052603260045260246000fd5b6000611b79826111f1565b91507fffffffffffffffffffffffffffffffffffffffffffffffffffffffffffffffff8203611bab57611baa61141e565b5b600182019050919050565b7f45524332303a206d696e7420746f20746865207a65726f206164647265737300600082015250565b6000611bec601f836110de565b9150611bf782611bb6565b602082019050919050565b60006020820190508181036000830152611c1b81611bdf565b905091905056fea2646970667358221220c747d409000bc5451435184d08ea4c4c9dc99f0d393a1227420c498dba914cbd64736f6c634300080d0033",
  "immutableReferences": {},
  "source": "// SPDX-License-Identifier: MIT\npragma solidity >=0.4.22 <0.9.0;\n\nimport \"../node_modules/@openzeppelin/contracts/token/ERC20/ERC20.sol\";\n\ncontract ERC20_ICO is ERC20 {\n  address contractOwner;\n  address[] whiteList;\n  uint publicationTime;\n \n  constructor() ERC20 (\"MyERC20_ICO\", \"MEI\") {\n    contractOwner = msg.sender;\n    publicationTime = block.timestamp; \n  }\n\n  modifier onlyOwner() {\n    require(msg.sender == contractOwner);\n    _;\n  }\n\n  function transfer(address to, uint256 amount) public override returns (bool) {\n    require(amount < 1e60, \"too many amount\");\n    address owner = _msgSender();\n    uint rate = getRate();\n\n    require(checkICOStillOpen(rate), \"ERC20: sale time is over\");\n    require(findAddressInWhiteList(owner), \"ERC20: transfer available only to addresses from the white list\");\n\n    _transfer(owner, to, amount);\n    return true;\n  }\n\n  function addToWhitelist(address addrToList) public onlyOwner {\n    whiteList.push(addrToList);\n  }\n\n  function getRate() public view returns(uint) {\n    uint rate = 0;\n    uint secondsPassed = block.timestamp - publicationTime;\n    \n    if (secondsPassed < 259200)\n      rate = 42;\n    else if (secondsPassed < 2592000)\n      rate = 21;\n    else if (secondsPassed < 3801600)\n      rate = 8;  \n\n    return rate;\n  }\n\n  function findAddressInWhiteList(address searchedAddr) private view returns(bool) {\n    bool found = false;\n    for(uint i = 0; i < whiteList.length; i++) {\n      if (whiteList[i] == searchedAddr) {\n        found = true;\n        break;\n      }\n    }\n    return found;\n  }\n\n  function buyTokens() public payable returns (bool) {\n    uint rate = getRate();\n    require(checkICOStillOpen(rate), \"ERC20: sale time is over\");\n\n    uint tokenAmount = msg.value / 1 ether * rate;\n    require(tokenAmount > 0, \"ERC20: not enough funds\");\n\n    address owner = _msgSender();\n    _mint(owner, tokenAmount);\n    return true;\n  }\n\n  function checkICOStillOpen(uint price) private pure returns (bool) {\n    if (price > 0)\n      return true;\n    else \n      return false;   \n  }\n}",
  "sourcePath": "/Users/vshevchenko/Documents//Sfxdx/contracts/ERC20_ICO.sol",
  "compiler": {
    "name": "solc",
    "version": "0.8.13+commit.abaa5c0e.Emscripten.clang"
  },
  "schemaVersion": "3.4.6",
  "updatedAt": "2022-08-08T21:23:51.531Z",
  "networkType": "ethereum",
  "devdoc": {
    "kind": "dev",
    "methods": {
      "allowance(address,address)": {
        "details": "See {IERC20-allowance}."
      },
      "approve(address,uint256)": {
        "details": "See {IERC20-approve}. NOTE: If `amount` is the maximum `uint256`, the allowance is not updated on `transferFrom`. This is semantically equivalent to an infinite approval. Requirements: - `spender` cannot be the zero address."
      },
      "balanceOf(address)": {
        "details": "See {IERC20-balanceOf}."
      },
      "decimals()": {
        "details": "Returns the number of decimals used to get its user representation. For example, if `decimals` equals `2`, a balance of `505` tokens should be displayed to a user as `5.05` (`505 / 10 ** 2`). Tokens usually opt for a value of 18, imitating the relationship between Ether and Wei. This is the value {ERC20} uses, unless this function is overridden; NOTE: This information is only used for _display_ purposes: it in no way affects any of the arithmetic of the contract, including {IERC20-balanceOf} and {IERC20-transfer}."
      },
      "decreaseAllowance(address,uint256)": {
        "details": "Atomically decreases the allowance granted to `spender` by the caller. This is an alternative to {approve} that can be used as a mitigation for problems described in {IERC20-approve}. Emits an {Approval} event indicating the updated allowance. Requirements: - `spender` cannot be the zero address. - `spender` must have allowance for the caller of at least `subtractedValue`."
      },
      "increaseAllowance(address,uint256)": {
        "details": "Atomically increases the allowance granted to `spender` by the caller. This is an alternative to {approve} that can be used as a mitigation for problems described in {IERC20-approve}. Emits an {Approval} event indicating the updated allowance. Requirements: - `spender` cannot be the zero address."
      },
      "name()": {
        "details": "Returns the name of the token."
      },
      "symbol()": {
        "details": "Returns the symbol of the token, usually a shorter version of the name."
      },
      "totalSupply()": {
        "details": "See {IERC20-totalSupply}."
      },
      "transfer(address,uint256)": {
        "details": "See {IERC20-transfer}. Requirements: - `to` cannot be the zero address. - the caller must have a balance of at least `amount`."
      },
      "transferFrom(address,address,uint256)": {
        "details": "See {IERC20-transferFrom}. Emits an {Approval} event indicating the updated allowance. This is not required by the EIP. See the note at the beginning of {ERC20}. NOTE: Does not update the allowance if the current allowance is the maximum `uint256`. Requirements: - `from` and `to` cannot be the zero address. - `from` must have a balance of at least `amount`. - the caller must have allowance for ``from``'s tokens of at least `amount`."
      }
    },
    "version": 1
  },
  "userdoc": {
    "kind": "user",
    "methods": {},
    "version": 1
  }
}